{
  "_format": "hh-sol-artifact-1",
  "contractName": "Cert",
  "sourceName": "contracts/Cert.sol",
  "abi": [
    {
      "inputs": [],
      "stateMutability": "nonpayable",
      "type": "constructor"
    },
    {
      "inputs": [
        {
          "internalType": "uint256",
          "name": "",
          "type": "uint256"
        }
      ],
      "name": "Certificates",
      "outputs": [
        {
          "internalType": "string",
          "name": "name",
          "type": "string"
        },
        {
          "internalType": "string",
          "name": "course",
          "type": "string"
        },
        {
          "internalType": "string",
          "name": "grade",
          "type": "string"
        },
        {
          "internalType": "string",
          "name": "date",
          "type": "string"
        }
      ],
      "stateMutability": "view",
      "type": "function"
    },
    {
      "inputs": [
        {
          "internalType": "uint256",
          "name": "_id",
          "type": "uint256"
        },
        {
          "internalType": "string",
          "name": "_name",
          "type": "string"
        },
        {
          "internalType": "string",
          "name": "_course",
          "type": "string"
        },
        {
          "internalType": "string",
          "name": "_grade",
          "type": "string"
        },
        {
          "internalType": "string",
          "name": "_date",
          "type": "string"
        }
      ],
      "name": "issue",
      "outputs": [],
      "stateMutability": "nonpayable",
      "type": "function"
    }
  ],
  "bytecode": "0x608060405234801561001057600080fd5b50336000806101000a81548173ffffffffffffffffffffffffffffffffffffffff021916908373ffffffffffffffffffffffffffffffffffffffff160217905550610b06806100606000396000f3fe608060405234801561001057600080fd5b50600436106100365760003560e01c80639622c8361461003b578063d1e7be261461006e575b600080fd5b61005560048036038101906100509190610448565b61008a565b6040516100659493929190610505565b60405180910390f35b6100886004803603810190610083919061069b565b6102da565b005b60016020528060005260406000206000915090508060000180546100ad906107b5565b80601f01602080910402602001604051908101604052809291908181526020018280546100d9906107b5565b80156101265780601f106100fb57610100808354040283529160200191610126565b820191906000526020600020905b81548152906001019060200180831161010957829003601f168201915b50505050509080600101805461013b906107b5565b80601f0160208091040260200160405190810160405280929190818152602001828054610167906107b5565b80156101b45780601f10610189576101008083540402835291602001916101b4565b820191906000526020600020905b81548152906001019060200180831161019757829003601f168201915b5050505050908060020180546101c9906107b5565b80601f01602080910402602001604051908101604052809291908181526020018280546101f5906107b5565b80156102425780601f1061021757610100808354040283529160200191610242565b820191906000526020600020905b81548152906001019060200180831161022557829003601f168201915b505050505090806003018054610257906107b5565b80601f0160208091040260200160405190810160405280929190818152602001828054610283906107b5565b80156102d05780601f106102a5576101008083540402835291602001916102d0565b820191906000526020600020905b8154815290600101906020018083116102b357829003601f168201915b5050505050905084565b60008054906101000a900473ffffffffffffffffffffffffffffffffffffffff1673ffffffffffffffffffffffffffffffffffffffff163373ffffffffffffffffffffffffffffffffffffffff1614610368576040517f08c379a000000000000000000000000000000000000000000000000000000000815260040161035f90610832565b60405180910390fd5b6040518060800160405280858152602001848152602001838152602001828152506001600087815260200190815260200160002060008201518160000190816103b191906109fe565b5060208201518160010190816103c791906109fe565b5060408201518160020190816103dd91906109fe565b5060608201518160030190816103f391906109fe565b509050505050505050565b6000604051905090565b600080fd5b600080fd5b6000819050919050565b61042581610412565b811461043057600080fd5b50565b6000813590506104428161041c565b92915050565b60006020828403121561045e5761045d610408565b5b600061046c84828501610433565b91505092915050565b600081519050919050565b600082825260208201905092915050565b60005b838110156104af578082015181840152602081019050610494565b60008484015250505050565b6000601f19601f8301169050919050565b60006104d782610475565b6104e18185610480565b93506104f1818560208601610491565b6104fa816104bb565b840191505092915050565b6000608082019050818103600083015261051f81876104cc565b9050818103602083015261053381866104cc565b9050818103604083015261054781856104cc565b9050818103606083015261055b81846104cc565b905095945050505050565b600080fd5b600080fd5b7f4e487b7100000000000000000000000000000000000000000000000000000000600052604160045260246000fd5b6105a8826104bb565b810181811067ffffffffffffffff821117156105c7576105c6610570565b5b80604052505050565b60006105da6103fe565b90506105e6828261059f565b919050565b600067ffffffffffffffff82111561060657610605610570565b5b61060f826104bb565b9050602081019050919050565b82818337600083830152505050565b600061063e610639846105eb565b6105d0565b90508281526020810184848401111561065a5761065961056b565b5b61066584828561061c565b509392505050565b600082601f83011261068257610681610566565b5b813561069284826020860161062b565b91505092915050565b600080600080600060a086880312156106b7576106b6610408565b5b60006106c588828901610433565b955050602086013567ffffffffffffffff8111156106e6576106e561040d565b5b6106f28882890161066d565b945050604086013567ffffffffffffffff8111156107135761071261040d565b5b61071f8882890161066d565b935050606086013567ffffffffffffffff8111156107405761073f61040d565b5b61074c8882890161066d565b925050608086013567ffffffffffffffff81111561076d5761076c61040d565b5b6107798882890161066d565b9150509295509295909350565b7f4e487b7100000000000000000000000000000000000000000000000000000000600052602260045260246000fd5b600060028204905060018216806107cd57607f821691505b6020821081036107e0576107df610786565b5b50919050565b7f4163636573732044656e69656400000000000000000000000000000000000000600082015250565b600061081c600d83610480565b9150610827826107e6565b602082019050919050565b6000602082019050818103600083015261084b8161080f565b9050919050565b60008190508160005260206000209050919050565b60006020601f8301049050919050565b600082821b905092915050565b6000600883026108b47fffffffffffffffffffffffffffffffffffffffffffffffffffffffffffffffff82610877565b6108be8683610877565b95508019841693508086168417925050509392505050565b6000819050919050565b60006108fb6108f66108f184610412565b6108d6565b610412565b9050919050565b6000819050919050565b610915836108e0565b61092961092182610902565b848454610884565b825550505050565b600090565b61093e610931565b61094981848461090c565b505050565b5b8181101561096d57610962600082610936565b60018101905061094f565b5050565b601f8211156109b25761098381610852565b61098c84610867565b8101602085101561099b578190505b6109af6109a785610867565b83018261094e565b50505b505050565b600082821c905092915050565b60006109d5600019846008026109b7565b1980831691505092915050565b60006109ee83836109c4565b9150826002028217905092915050565b610a0782610475565b67ffffffffffffffff811115610a2057610a1f610570565b5b610a2a82546107b5565b610a35828285610971565b600060209050601f831160018114610a685760008415610a56578287015190505b610a6085826109e2565b865550610ac8565b601f198416610a7686610852565b60005b82811015610a9e57848901518255600182019150602085019450602081019050610a79565b86831015610abb5784890151610ab7601f8916826109c4565b8355505b6001600288020188555050505b50505050505056fea2646970667358221220455ead3ceea1db163a577a8250978b3cc76f46731418799b60b5d2aa4ee92d1464736f6c63430008140033",
  "linkReferences": {},
  "deployedLinkReferences": {}
}